:1000000045C0000058C0000056C0000054C00000A9
:1000100052C0000050C000004EC000004CC00000A4
:100020004AC0000048C0000046C0000044C00000B4
:1000300042C0000040C000003EC000003CC00000C4
:100040003AC0000038C0000036C0000034C00000D4
:1000500032C0000030C000002EC000002CC00000E4
:100060002AC0000028C0000026C0000024C00000F4
:1000700022C0000020C000001EC000001CC0000004
:100080001AC0000018C0000016C0000011241FBED6
:10009000CFEFD0E1DEBFCDBF11E0A0E0B1E0E2E6FE
:1000A000F2E000E00BBF02C007900D92A232B10750
:1000B000D9F736D0D4C0A4CF9093900089B980E10D
:1000C0008AB986E08093950008955F9BFECF8CB13E
:1000D00008950F931F93CF93DF93EC01062F10E049
:1000E0000FC0F3DF882361F08A3011F08D3019F4EE
:1000F000112331F00DC0FE01E10FF11D80831F5F60
:10010000212F30E0802F90E00197281739074CF31A
:10011000C10FD11D1882DF91CF911F910F910895CA
:10012000CF93DF93CDB7DEB7A0970FB6F894DEBFBD
:100130000FBECDBF80E884BF84BF87E690E0BCDF00
:1001400084B38A6184BBE1E6F0E0808187608083CC
:1001500085B3857E85BBE2E6F0E08081887F808381
:1001600060E2CE010196B5DF60E071E0CE0101965C
:100170005CD0892B49F085B3826085BBE2E6F0E074
:10018000808184608083ECCF65E071E0CE010196D0
:100190004CD0892B49F085B38D7F85BBE2E6F0E03A
:1001A00080818B7F8083DCCF6BE071E0CE01019694
:1001B0003CD0892B49F085B3886085BBE2E6F0E04E
:1001C000808182608083CCCF60E171E0CE010196B6
:1001D0002CD0892B49F085B3877F85BBE2E6F0E020
:1001E00080818D7F8083BCCF66E171E0CE01019676
:1001F0001CD0892B49F085B3806185BBE2E6F0E035
:10020000808181608083ACCF6BE171E0CE0101968B
:100210000CD0892B09F4A4CF85B38F7E85BBE2E691
:10022000F0E080818E7F80839BCFFB01519155232D
:10023000A9F0BF01DC014D9145174111E1F759F4D7
:10024000CD010190002049F04D9140154111C9F3B5
:10025000FB014111EFCF81E090E001970895F89400
:02026000FFCFCE
:100262004C314F4E004C314F4646004C324F4E00FF
:100272004C324F4646004C334F4E004C334F4646AD
:0202820000007A
:00000001FF
